:020000020000FC
:100000000C940C0418951895189518951895189532
:100010001895189518951895189518951895189578
:100020001895189518951895189518951895189568
:100030001895189518951895189518951895189558
:1000400018951895189518950C944C0318951895B3
:100050000C9471031895189518951895189518957E
:100060001895189518951895189518951895189528
:100070001895189518951895189518951895189518
:100080001895189518951895189518950D00000154
:100090005C092E020D010000F80100810770073095
:1000A00011F401E0089500E00895F901605019F09D
:1000B0006A95B9F008952081318160857185260F98
:1000C000371F21503040201B310B2417350734F4E3
:1000D0000081118141505040421B530B040F151FEA
:1000E0000895608171819801261B370B241735070D
:1000F0005CF40081118160857185060F171F241B38
:10010000350B020F131F0895519541955040E6CFCE
:10011000BA93AA93D8010A8111962D933C93129712
:1001200013964D935C93149715966D937C93169745
:1001300017960C9317970C9101600C938D01ACDF0F
:1001400000FB0C9103F90C930C910170A991B991EA
:1001500021960895BA93AA93D8010A811B815096DB
:100160002D933C93519758964D935C9359975A967B
:100170006D937C935B9792960D931C9393970C9140
:1001800002600C938D0188DF00FB0C9103F90C9346
:100190000C9101FB00E000F9A991B9912296089514
:1001A000BA93AA93D8010C9101FF3DC050960D91CE
:1001B0001C91519754960D931C93559752960D93FD
:1001C0001C93539758964D915C91599720E030E0DD
:1001D00050960D911C9151970E94670400E056962D
:1001E0000D930C9357975A960D911C915B975E96C1
:1001F0000D931C935F975C960D931C935D9792965D
:100200004D915C91939720E030E05A960D911C91AE
:100210005B970E94670400E090960D930C93919772
:100220000C9104600C938D0137DF00FB0C9103F9F6
:100230000C930C9102FB00E000F9A991B99108958B
:100240000E944F04D801C9012A010C9103FF10C07C
:10025000662477240AC0FC01E60DF71D20818D017C
:100260000AD001E0600E00E0701E641475049CF377
:10027000E8E00C945804BA93AA93D8015096F80178
:10028000008103FF1DC0FD01068117814085518556
:1002900004171507ACF4068117810F5F1F4F068303
:1002A000178302811381F801208360E041E050E070
:1002B0009D01FD0102811381F8DEFD01028313839C
:1002C000A991B9910895BA93AA939801D90150962A
:1002D000F901008103FF2FC0FD0106811781012B69
:1002E000D9F00681178101501040068317830481DD
:1002F0001581F8014081F90101811281F8014083E3
:1003000060E041E050E09D01FD0104811581CDDEFA
:10031000FD01048315830FC0F90100810F7E008366
:10032000478101E010E00E941E040095A581B6817E
:100330001C9110231C93A991B9910895BA93AA9383
:10034000F801008103FF14C0A381B4810C9105FF63
:10035000FBCF008100610083478101E010E00E9433
:100360001E04A581B6811C91102B1C938F01ABDF5D
:10037000A991B99108950E9453042197C801DC0105
:100380005A96FC01008103FF35C0008104FD08C0BE
:10039000FD0106811781208531850217130734F08E
:1003A000FC01A181B2810C91088324C006811781D0
:1003B0000F5F1F4F06831783FC0101811281F80133
:1003C0002081FD0102811381F801208360E041E07A
:1003D00050E09D01FD010281138167DEFD01028372
:1003E0001383FC01008511852285338504871587D9
:1003F000268737872196E4E00C945C04F80100A17D
:1004000011A10895BA93AA93D8015A96F8010081D0
:1004100003FF1CC0FD0106811781012BB9F0068185
:100420001781015010400683178304811581F8015C
:100430000081F901008360E041E050E09D01FD0191
:100440000481158132DEFD0104831583A991B991E0
:1004500008950E944F04D801C9012A010C9103FF9D
:100460000EC06624772408C09C018D01CBDF019665
:1004700001E0600E00E0701E64147504ACF3E8E067
:100480000C945804F801208123FF09C0228D338D7C
:10049000248F358F268F378F20E020A321A3089546
:1004A000F801208123FF1EC0448555856685778528
:1004B000452B462B472B61F044855585668577850E
:1004C0004150504060407040448755876687778729
:1004D0000485158526853785012B022B032B11F00A
:1004E00001E0089500E008951B2E2A2EF8010881EE
:1004F0001981022E032A19F0002E012A11F400E0BE
:100500000EC0458356836783708745E0418721830A
:1005100032830383148300810160008301E0A22DF4
:10052000B12D229608950E945304D8010C9100FF2A
:10053000B0C0FD010185021709F4ABC0218721502D
:1005400041F12A9509F444C02A9509F460C02A951E
:10055000058116812781308544E009F478C00E9426
:10056000240440E855E260E070E00E942C04C801D9
:100570000197FD0103811481F8019083FD0105813C
:1005800016812781308544E00E94240440E855E22A
:100590005CC0058116812781308544E00E942404D7
:1005A00040E05BE460E070E00E942C04C801019729
:1005B000FD0103811481F8019083FD0105811681FD
:1005C0002781308544E00E94240440E05BE43DC084
:1005D000058116812781308544E00E94240440E093
:1005E00056E960E070E00E942C04C8010197FD010B
:1005F00003811481F8019083FD0105811681278113
:10060000308544E00E94240440E056E91EC0058184
:1006100016812781308544E00E94240440E051EE99
:1006200060E070E00E942C04C8010197FD01038185
:100630001481F8019083FD010581168127813085A1
:1006400044E00E94240440E051EE60E01AC00E94A1
:10065000240440E052EC61E070E00E942C04C801E8
:100660000197FD0103811481F8019083FD0105814B
:1006700016812781308544E00E94240440E052EC3A
:1006800061E070E00E942C040A95FD01A181B28115
:100690000C93E4E00C945C048A93FA93EA933A9204
:1006A0002A921A920A927A936A935A934A933A93A5
:1006B0002A931A930A938FB70DE011E00E94BB01B1
:1006C0008FBF099119912991399149915991699156
:1006D00079910990199029903990E991F99189912E
:1006E00018958A93FA93EA933A922A921A920A9266
:1006F0007A936A935A934A933A932A931A930A9352
:100700008FB70DE011E00E9463018FBF099119912D
:10071000299139914991599169917991099019904B
:1007200029903990E991F9918991189564978D9A5A
:1007300008ED0AB905E00A9362E370E04BE250E08D
:100740002CE230E00DE011E00E94880000E011E0B2
:100750001A930A936BE372E040E051E02BE331E03F
:100760000DE011E00E94AA000DE011E00E94D0000F
:1007700008EE13E030E0EDE0F1E00087118732870A
:10078000338700E93A930A9329E240E050E061EEB2
:1007900070E001E311E00E94740220E001E311E047
:1007A0000E94930278940DE011E00E94FE01013056
:1007B0001040CCF30DE011E00E945002002399F7A5
:1007C00044E150E020E030E08E010E9467040DE03B
:1007D00011E00E94FE01A8019E010DE011E00E94BF
:1007E000290220E031E08E010E949804012B61F47F
:1007F00048E050E025E031E00DE011E00E942001EA
:100800000DE011E00E949E010DE011E00E94420205
:10081000CACF00008895FECF0AE70DBF03E00EBFE8
:10082000CBE7D5E00E946504002311F00E947E040E
:100830000E9496030E9409040C9409044A951AF038
:10084000000F111FFBCF08954A952AF03695279582
:1008500017950795F9CF0895002411241001E0E2BF
:10086000EA9592F0001F111F221F331F001C111C5C
:10087000221C331C041615062606370688F3041AB4
:10088000150A260A370AECCF001F111F221F331F3B
:10089000A001B101009510952095309508957A92A8
:1008A0006A925A924A92BA93AA939A938A93089513
:1008B0007F806E805D804C80BB81AA819981888118
:1008C000F0E0EC0FFD1FEF01089501E00895F8013D
:1008D00001C02193BA0141505040672BD1F70895D0
:1008E00020E006D0E9F70895259102D0E9F70895B0
:1008F0002D9301501040202F212B08958CE890E07B
:10090000FC0105911491FC013296A591B491FC0172
:10091000349625913491422F432B19F0F901E4DFED
:1009200001C0DEDF069610E08839910748F308958C
:1009300002C02F5F3F4FF8014081F90150814517F8
:1009400041F4F80131968F01442399F700E010E05B
:100950000895042F10E0051B1040089543414C4CAE
:0909600000524553504F4E450072
:0400000300000000F9
:00000001FF
