:020000020000FC
:100000000C9404041895189518951895189518953A
:100010001895189518951895189518951895189578
:100020001895189518951895189518951895189568
:100030001895189518951895189518951895189558
:1000400018951895189518950C94480318951895B7
:100050000C946D0318951895189518951895189582
:100060001895189518951895189518951895189528
:100070001895189518951895189518951895189518
:100080001895189518951895189518950D00000154
:100090004C092B020D010000F801008107700730A8
:1000A00011F401E0089500E00895F901605019F09D
:1000B0006A95B9F008952081318160857185260F98
:1000C000371F21503040201B310B2417350734F4E3
:1000D0000081118141505040421B530B040F151FEA
:1000E0000895608171819801261B370B241735070D
:1000F0005CF40081118160857185060F171F241B38
:10010000350B020F131F0895519541955040E6CFCE
:10011000BA93AA93D80111962C93119712963C93F7
:10012000129713964C93139714965C9314970C9113
:1001300001600C938D01B0DF00FB0C9103F90C936F
:100140000C910170A991B9910895BA93AA93D8011D
:100150000A811B811D962D933C931E9755964D93B6
:100160005C93569757966D937C9358975F960D9333
:100170001C9390970C9102600C938D018DDF00FB16
:100180000C9103F90C930C9101FB00E000F9A9918B
:10019000B99122960895BA93AA93D8010C9101FFC0
:1001A0003DC01D960D911C911E9751960D931C9369
:1001B00052971F960D931C93509755964D915C91B5
:1001C000569720E030E01D960D911C911E970E94DD
:1001D0005F0400E053960D930C93549757960D913E
:1001E0001C9158975B960D931C935C9759960D93B1
:1001F0001C935A975F964D915C91909720E030E068
:1002000057960D911C9158970E945F0400E05D96EF
:100210000D930C935E970C9104600C938D013CDF61
:1002200000FB0C9103F90C930C9102FB00E000F928
:10023000A991B99108950E944704D801C9012A01E2
:100240000C9103FF10C0662477240AC0FC01E60D60
:10025000F71D20818D010AD001E0600E00E0701EC4
:10026000641475049CF3E8E00C945004BA93AA93C8
:10027000D8011D96F801008103FF1DC0FD01068114
:1002800017814085518504171507ACF40681178145
:100290000F5F1F4F0683178302811381F8012083AC
:1002A00060E041E050E09D01FD0102811381FDDE2F
:1002B000FD0102831383A991B9910895BA93AA937A
:1002C0009801D9011D96F901008103FF30C0FD019D
:1002D00006811781012BD9F006811781015010404A
:1002E0000683178304811581F8011081F9010181CA
:1002F000E02FF0E0108360E041E050E09D01FD015F
:1003000004811581D2DEFD010483158310C0F9013B
:1003100000810F7E0083448101E010E00E941604FA
:1003200000951381E12FF0E0108110231083A99133
:10033000B9910895BA93AA93F801008103FF13C0FD
:10034000A281B0E00C9105FFFBCF0081006100832A
:10035000448101E010E00E941604A3811C91102B3F
:100360001C938F01ABDFA991B99108950E944B04B2
:100370002197C801DC015796FC01008103FF36C0BC
:10038000008104FD08C0FD010681178120853185AB
:10039000021713073CF0FC010181E02FF0E000811F
:1003A000088324C0068117810F5F1F4F06831783C0
:1003B000FC010181E02FF0E02081FD010281138129
:1003C000F801208360E041E050E09D01FD010281E1
:1003D00013816BDEFD0102831383FC01058116810D
:1003E0002781308501871287238734872196E4E0AF
:1003F0000C945404F801058D168D0895BA93AA93B0
:10040000D8015796F801008103FF1CC0FD01068149
:100410001781012BB9F00681178101501040068326
:10042000178304811581F8010081F901008360E0E0
:1004300041E050E09D01FD010481158136DEFD01A2
:1004400004831583A991B99108950E944704D801A6
:10045000C9012A010C9103FF0EC06624772408C04D
:100460009C018D01CBDF019601E0600E00E0701E63
:1004700064147504ACF3E8E00C945004F801208196
:1004800023FF09C02789308D218F328F238F348F2E
:1004900020E0258F268F0895F801208123FF1EC0BC
:1004A0004185528563857485452B462B472B61F02A
:1004B000418552856385748541505040604070404D
:1004C0004187528763877487018512852385348528
:1004D000012B022B032B11F001E0089500E0089599
:1004E0001B2E2A2EF80108811981022E032A19F0E9
:1004F000002E012A11F400E00EC045835683678365
:10050000708745E041872183328303831483008110
:100510000160008301E0A22DB12D229608950E9472
:100520004B04D8010C9100FFB0C0FD0101850217FA
:1005300009F4ABC02187215041F12A9509F444C048
:100540002A9509F460C02A95058116812781308596
:1005500044E009F478C00E941C0440E855E260E0E1
:1005600070E00E942404C8010197FD0103811481F9
:10057000F8019083FD01058116812781308544E0D3
:100580000E941C0440E855E25CC005811681278169
:10059000308544E00E941C0440E05BE460E070E0D1
:1005A0000E942404C8010197FD0103811481F80110
:1005B0009083FD01058116812781308544E00E94EA
:1005C0001C0440E05BE43DC0058116812781308535
:1005D00044E00E941C0440E056E960E070E00E94A4
:1005E0002404C8010197FD0103811481F80190835F
:1005F000FD01058116812781308544E00E941C049D
:1006000040E056E91EC0058116812781308544E00F
:100610000E941C0440E051EE60E070E00E9424045F
:10062000C8010197FD0103811481F8019083FD0148
:10063000058116812781308544E00E941C0440E03A
:1006400051EE60E01AC00E941C0440E052EC61E0F0
:1006500070E00E942404C8010197FD010381148108
:10066000F8019083FD01058116812781308544E0E2
:100670000E941C0440E052EC61E070E00E942404FF
:100680000A95FD01A181B2810C93E4E00C9454041D
:100690008A93FA93EA933A922A921A920A927A9356
:1006A0006A935A934A933A932A931A930A938FB769
:1006B0000DE011E00E94B6018FBF099119912991B7
:1006C000399149915991699179910990199029909D
:1006D0003990E991F991899118958A93FA93EA935F
:1006E0003A922A921A920A927A936A935A934A9366
:1006F0003A932A931A930A938FB70DE011E00E9460
:100700005E018FBF099119912991399149915991B0
:10071000699179910990199029903990E991F9910D
:100720008991189564978D9A08ED0AB955E042E3CE
:100730003BE22CE20DE011E00E94880000E011E0B5
:100740001A930A9368E372E040E051E028E331E055
:100750000DE011E00E94A5000DE011E00E94CB0029
:1007600008EE13E030E0EDE0F1E005831683378317
:10077000308700E93A930A9329E240E050E061EEC5
:1007800070E00EE211E00E94700220E00EE211E043
:100790000E948F0278940DE011E00E94FA0101306E
:1007A0001040CCF30DE011E00E944C02002399F7B9
:1007B00044E150E020E030E08E010E945F040DE053
:1007C00011E00E94FA01A8019E010DE011E00E94D3
:1007D000250220E031E08E010E949004012B61F49B
:1007E00048E050E025E031E00DE011E00E941B01FF
:1007F0000DE011E00E949A010DE011E00E943E021E
:10080000CACF00008895FECF07E70DBF03E00EBFFB
:10081000C8E7D5E00E945D04002311F00E94760431
:100820000E9492030E9401040C9401044A951AF05C
:10083000000F111FFBCF08954A952AF03695279592
:1008400017950795F9CF0895002411241001E0E2CF
:10085000EA9592F0001F111F221F331F001C111C6C
:10086000221C331C041615062606370688F3041AC4
:10087000150A260A370AECCF001F111F221F331F4B
:10088000A001B101009510952095309508957A92B8
:100890006A925A924A92BA93AA939A938A93089523
:1008A0007F806E805D804C80BB81AA819981888128
:1008B000F0E0EC0FFD1FEF01089501E00895F8014D
:1008C00001C02193BA0141505040672BD1F70895E0
:1008D00020E006D0E9F70895259102D0E9F70895C0
:1008E0002D9301501040202F212B08958CE890E08B
:1008F000FC0105911491FC013296A591B491FC0183
:10090000349625913491422F432B19F0F901E4DFFD
:1009100001C0DEDF069610E08839910748F308959C
:1009200002C02F5F3F4FF8014081F9015081451708
:1009300041F4F80131968F01442399F700E010E06B
:100940000895042F10E0051B1040089543414C4CBE
:0909500000524553504F4E450082
:0400000300000000F9
:00000001FF
