:020000020000FC
:100000000C94380418951895189518951895189506
:100010001895189518951895189518951895189578
:100020001895189518951895189518951895189568
:100030001895189518951895189518951895189558
:1000400018951895189518950C947D031895189582
:100050000C94A2031895189518951895189518954D
:100060001895189518951895189518951895189528
:100070001895189518951895189518951895189518
:100080001895189518951895189518950D00000154
:10009000B40934020D010000F80100810770073037
:1000A00011F401E0089500E008953B2F6A2F2FB767
:1000B000F894F801478101E010E00E944A04A5810C
:1000C000B6811C91102B1C932FBFA62FB32F089520
:1000D0003B2F6A2F2FB7F894F801478101E010E019
:1000E0000E944A040095A581B6811C9110231C939F
:1000F0002FBFA62FB32F0895BA93AA93D8010A81D0
:1001000011962D933C93129713964D935C931497ED
:1001100015966D937C93169717960C9317970C91E1
:1001200001600C938D01B8DF00FB0C9104F90C9376
:100130000C910170A991B99121960895BA93AA934F
:10014000D8010A811B8150962D933C935197589664
:100150004D935C9359975A966D937C935B979296C7
:100160000D931C9393970C9102600C938D0194DF77
:1001700000FB0C9104F90C930C9101FB00E000F9D9
:10018000A991B99122960895BA93AA93D8010C9196
:1001900001FF3DC050960D911C91519754960D93BF
:1001A0001C93559752960D931C93539758964D91C7
:1001B0005C91599720E030E050960D911C91519739
:1001C0000E94930400E056960D930C9357975A960D
:1001D0000D911C915B975E960D931C935F975C96B7
:1001E0000D931C935D9792964D915C91939720E0AF
:1001F00030E05A960D911C915B970E94930400E0A9
:1002000090960D930C9391970C9104600C9300E0E1
:1002100094960D930C9395978D013EDF00FB0C9106
:1002200004F90C930C9102FB00E000F9A991B9913B
:1002300008950E947B04D801C9012A010C9104FF92
:1002400010C0662477240AC0FC01E60DF71D20814A
:100250008D010AD001E0600E00E0701E6414750488
:1002600098F3E8E00C948404BD01D801FD01709678
:100270000C9104FF26C00681178140855185041723
:100280001507F8F4068117810F5F1F4F0683178348
:10029000A281B3812C932281338100811181408519
:1002A0005185040F151F015010402017310719F414
:1002B0000081118104C0028113810F5F1F4F0283EF
:1002C0001383DB0108950E947F04D801CD0140967D
:1002D0008C012C9124FF50C0F80126813781232BFB
:1002E00071F1268137812150304026833783248164
:1002F0003581F9014081FD0121813281F90140837D
:10030000F801448155812081318160857185260FF6
:10031000371F215030404217530729F42081318183
:100320002483358306C0048115810F5F1F4F04832A
:100330001583FD0104A115A106A317A31DC0FD018E
:1003400004A115A1012BC1F40C910F7D0C930C910C
:1003500003FF06C000E020A531A5F901099502C000
:100360008D01B6DEFD0104891589228933890217C2
:10037000130711F08C01B8D0E4E00C948804BA9310
:10038000AA93D8010C9104FF1DC01396ED91FC9126
:100390001497008105FFF9CF0C9100620C93FD01C9
:1003A00004A115A106A317A30C9103FF07C001E048
:1003B0009896ED91FC919997099502C08D0175DE93
:1003C0008D0181DFA991B99108950D012197F8015F
:1003D0007A96D8012C9124FF3DC02C9125FD07C0B1
:1003E00026813781408551852417350730F0F80183
:1003F000A181B2810C9108832DC0268137812F5FA6
:100400003F4F2683378311962D913C91D9012C9132
:10041000A281B3812C9342815381208131816085F7
:100420007185260F371F215030404217530719F4AA
:100430002081318104C0228133812F5F3F4F22838D
:100440003383F801408551856285738544875587DC
:10045000668777872196D0010895BD01D801FD01F7
:100460007A960C9104FF25C006811781012B09F1B2
:10047000068117810150104006831783A481B5813E
:100480000C91D9010C932481358100811181408523
:100490005185040F151F015010402017310719F422
:1004A0000081118104C0048115810F5F1F4F0483F7
:1004B0001583DB0108950E947B04D801C9012A013C
:1004C0000C9104FF0EC06624772408C09C018D01A6
:1004D000C4DF019601E0600E00E0701E6414750434
:1004E000A8F3E8E00C948404F80120813181228390
:1004F0003383228133812483358320E0268327833D
:100500000895F801208124FF1EC044855585668525
:100510007785452B462B472B61F0448555856685AD
:1005200077854150504060407040448755876687CA
:1005300077870485158526853785012B022B032BAC
:1005400011F001E0089500E008951B2E2A2EF80115
:1005500008811981022E032A19F0002E012A11F4B4
:1005600000E00EC0458356836783708745E041876E
:10057000218332830383148300810160008301E0BF
:10058000A22DB12D229608950E947F04D8010C91CE
:1005900000FFB0C0FD010185021709F4ABC021873F
:1005A000215041F12A9509F444C02A9509F460C00C
:1005B0002A95058116812781308544E009F478C0A9
:1005C0000E94500440E855E260E070E00E94580448
:1005D000C8010197FD0103811481F8019083FD0199
:1005E000058116812781308544E00E94500440E84F
:1005F00055E25CC0058116812781308544E00E9468
:10060000500440E05BE460E070E00E945804C801E0
:100610000197FD0103811481F8019083FD0105819B
:1006200016812781308544E00E94500440E05BE45D
:100630003DC0058116812781308544E00E94500429
:1006400040E056E960E070E00E945804C80101975C
:10065000FD0103811481F8019083FD01058116815C
:100660002781308544E00E94500440E056E91EC0D6
:10067000058116812781308544E00E94500440E0C6
:1006800051EE60E070E00E945804C8010197FD013E
:1006900003811481F8019083FD0105811681278172
:1006A000308544E00E94500440E051EE60E01AC002
:1006B0000E94500440E052EC61E070E00E94580457
:1006C000C8010197FD0103811481F8019083FD01A8
:1006D000058116812781308544E00E94500440E066
:1006E00052EC61E070E00E9458040A95FD01A1817E
:1006F000B2810C93E4E00C9488048A93FA93EA9311
:100700003A922A921A920A927A936A935A934A9345
:100710003A932A931A930A938FB70DE011E00E943F
:10072000E5018FBF09911991299139914991599109
:10073000699179910990199029903990E991F991ED
:10074000899118958A93FA93EA933A922A921A9287
:100750000A927A936A935A934A933A932A931A93F2
:100760000A938FB70DE011E00E9463018FBF0991DA
:1007700019912991399149915991699179910990EA
:10078000199029903990E991F99189911895BA9326
:10079000AA9364978D9A08ED0AB9ADE0B1E005E03F
:1007A0000A9362E370E04BE250E02CE230E08D010E
:1007B0000E947C0000E011E01A930A9361E472E069
:1007C00040E051E021E431E08D010E949E008D0166
:1007D0000E94C40008EE13E030E018960D931D93BC
:1007E0003D933C931B9700E93A930A9329E240E03A
:1007F00050E061EE70E007E311E00E94A50220E006
:1008000007E311E00E94C402789490960D911C9128
:100810009197012BD1F38D010E9481020023A9F74A
:1008200044E150E020E030E08E010E949304909675
:100830004D915C9191979E018D010E945B0220E099
:1008400031E08E010E94C404012B51F448E050E0D5
:1008500025E031E08D010E9419018D010E94BF0148
:1008600007E211E00E947402D0CF00008895FECF0D
:1008700000E80DBF03E00EBFC1E8D5E00E9491047F
:10088000002311F00E94AA040E94C7030E943504AD
:100890000C9435044A951AF0000F111FFBCF0895F0
:1008A0004A952AF03695279517950795F9CF08951B
:1008B000002411241001E0E2EA9592F0001F111FBC
:1008C000221F331F001C111C221C331C041615068A
:1008D0002606370688F3041A150A260A370AECCFCB
:1008E000001F111F221F331FA001B1010095109599
:1008F0002095309508957A926A925A924A92BA93C4
:10090000AA939A938A9308957F806E805D804C802D
:10091000BB81AA8199818881F0E0EC0FFD1FEF0176
:10092000089501E00895F80101C02193BA014150F2
:100930005040672BD1F7089520E006D0E9F70895DD
:10094000259102D0E9F708952D9301501040202FF2
:10095000212B08958CE890E0FC0105911491FC0195
:100960003296A591B491FC01349625913491422F91
:10097000432B19F0F901E4DF01C0DEDF069610E039
:100980008839910748F3089502C02F5F3F4FF8015F
:100990004081F9015081451741F4F80131968F01EA
:1009A000442399F700E010E00895042F10E0051BA0
:1009B0001040089543414C4C00524553504F4E4512
:0109C0000036
:0400000300000000F9
:00000001FF
