:020000020000FC
:100000000C94EB0318951895189518951895189554
:100010001895189518951895189518951895189578
:100020001895189518951895189518951895189568
:100030001895189518951895189518951895189558
:1000400018951895189518950C942B0318951895D4
:100050000C9450031895189518951895189518959F
:100060001895189518951895189518951895189528
:100070001895189518951895189518951895189518
:100080001895189518951895189518950D00000154
:100090001A092E020D010000F801008107700730D7
:1000A00011F401E0089500E00895F9016081718183
:1000B00000841184600D711D61507040601B710BD4
:1000C0006417750734F40081118141505040461B7C
:1000D000570B040F151F0895BA93AA93D8010A81EC
:1000E00011962D933C93129713964D935C9314970E
:1000F00015966D937C93169717960C9317970C9102
:1001000001600C938D01C8DF00FB0C9103F90C9387
:100110000C910170A991B99121960895BA93AA936F
:10012000D8010A811B8150962D933C935197589684
:100130004D935C9359975A966D937C935B979296E7
:100140000D931C9393970C9102600C938D01A4DF87
:1001500000FB0C9103F90C930C9101FB00E000F9FA
:10016000A991B99122960895BA93AA93D8010C91B6
:1001700001FF3DC050960D911C91519754960D93DF
:100180001C93559752960D931C93539758964D91E7
:100190005C91599720E030E050960D911C91519759
:1001A0000E94460400E056960D930C9357975A967A
:1001B0000D911C915B975E960D931C935F975C96D7
:1001C0000D931C935D9792964D915C91939720E0CF
:1001D00030E05A960D911C915B970E94460400E016
:1001E00090960D930C9391970C9104600C938D0154
:1001F00053DF00FB0C9103F90C930C9102FB00E020
:1002000000F9A991B99108950E942E04D801C9015D
:100210002A010C9103FF10C0662477240AC0FC0158
:10022000E60DF71D20818D010AD001E0600E00E08F
:10023000701E641475049CF3E8E00C943704BA93C0
:10024000AA93D8015096F801008103FF1CC0FD015C
:10025000068117814085518504171507A4F406818E
:1002600017810F5F1F4F0683178302811381F801E7
:10027000208341E050E09D01FD010281138115DFE3
:10028000FD0102831383A991B9910895BA93AA93AA
:100290009801D9015096F901008103FF2EC0FD019C
:1002A00006811781012BD1F0068117810150104082
:1002B0000683178304811581F8014081F9010181CA
:1002C0001281F801408341E050E09D01FD0104816D
:1002D0001581EBDEFD01048315830FC0F901008158
:1002E0000F7E0083478101E010E00E94FD0300952E
:1002F000A581B6811C9110231C93A991B9910895F1
:10030000BA93AA93F801008103FF14C0A381B481BA
:100310000C9105FFFBCF008100610083478101E064
:1003200010E00E94FD03A581B6811C91102B1C9347
:100330008F01ACDFA991B99108950E9432042197F1
:10034000C801DC015A96FC01008103FF34C0008122
:1003500004FD08C0FD010681178120853185021743
:10036000130734F0FC01A181B2810C91088323C0F2
:10037000068117810F5F1F4F06831783FC010181E0
:100380001281F8012081FD0102811381F80120838F
:1003900041E050E09D01FD010281138186DEFD01F7
:1003A00002831383FC010085118522853385048730
:1003B0001587268737872196E4E00C943B04F801E3
:1003C00000A111A10895BA93AA93D8015A96F801F1
:1003D000008103FF1BC0FD0106811781012BB1F0D5
:1003E000068117810150104006831783048115810F
:1003F000F8010081F901008341E050E09D01FD0119
:100400000481158152DEFD0104831583A991B99100
:1004100008950E942E04D801C9012A010C9103FFFE
:100420000EC06624772408C09C018D01CCDF0196A4
:1004300001E0600E00E0701E64147504ACF3E8E0A7
:100440000C943704F8012081318122833383228187
:1004500033812483358320E0268327830895F801A0
:10046000208123FF1EC04485558566857785452BF1
:10047000462B472B61F0448555856685778541502D
:100480005040604070404487558766877787048571
:10049000158526853785012B022B032B11F001E0F2
:1004A000089500E008951B2E2A2EF8010881198175
:1004B000022E032A19F0002E012A11F400E00EC0CA
:1004C000458356836783708745E041872183328364
:1004D0000383148300810160008301E0A22DB12D0C
:1004E000229608950E943204D8010C9100FFB0C0FA
:1004F000FD010185021709F4ABC02187215041F1AC
:100500002A9509F444C02A9509F460C02A9505810A
:1005100016812781308544E009F478C00E940304E5
:1005200040E855E260E070E00E940B04C8010197CA
:10053000FD0103811481F8019083FD01058116817D
:100540002781308544E00E94030440E855E25CC006
:10055000058116812781308544E00E94030440E034
:100560005BE460E070E00E940B04C8010197FD01AC
:1005700003811481F8019083FD0105811681278193
:10058000308544E00E94030440E05BE43DC0058107
:1005900016812781308544E00E94030440E056E93B
:1005A00060E070E00E940B04C8010197FD01038127
:1005B0001481F8019083FD01058116812781308522
:1005C00044E00E94030440E056E91EC00581168104
:1005D0002781308544E00E94030440E051EE60E052
:1005E00070E00E940B04C8010197FD010381148192
:1005F000F8019083FD01058116812781308544E053
:100600000E94030440E051EE60E01AC00E9403041F
:1006100040E052EC61E070E00E940B04C8010197D9
:10062000FD0103811481F8019083FD01058116818C
:100630002781308544E00E94030440E052EC61E0F1
:1006400070E00E940B040A95FD01A181B2810C9318
:10065000E4E00C943B048A93FA93EA933A922A9248
:100660001A920A927A936A935A934A933A932A93E4
:100670001A930A938FB70DE011E00E949D018FBF7E
:1006800009911991299139914991599169917991DA
:100690000990199029903990E991F99189911895CB
:1006A0008A93FA93EA933A922A921A920A927A9346
:1006B0006A935A934A933A932A931A930A938FB759
:1006C0000DE011E00E9446018FBF09911991299117
:1006D000399149915991699179910990199029908D
:1006E0003990E991F9918991189564978D9A08ED5F
:1006F0000AB905E00A9362E370E04BE250E02CE2B5
:1007000030E00DE011E00E946C0000E011E01A936F
:100710000A936BE372E040E051E02BE331E00DE03F
:1007200011E00E948E000DE011E00E94B40008EE7E
:1007300013E030E0EDE0F1E0008711873287338786
:1007400000E93A930A9329E240E050E061EE70E05C
:1007500001E311E00E94530220E001E311E00E9456
:10076000720278940DE011E00E94DF010130104028
:10077000CCF30DE011E00E942F02002399F744E131
:1007800050E020E030E08E010E9446040DE011E0D0
:100790000E94DF01A8019E010DE011E00E94090204
:1007A00020E031E08E010E947704012B61F448E0E3
:1007B00050E025E031E00DE011E00E9404010DE081
:1007C00011E00E94800107E211E00E942202CACFDC
:1007D00000008895FECF0AE70DBF03E00EBFCBE710
:1007E000D5E00E944404002311F00E945D040E94A1
:1007F00075030E94E8030C94E8034A951AF0000F71
:10080000111FFBCF08954A952AF036952795179525
:100810000795F9CF0895002411241001E0E2EA952C
:1008200092F0001F111F221F331F001C111C221CDD
:10083000331C041615062606370688F3041A150A13
:10084000260A370AECCF001F111F221F331FA001F9
:10085000B101009510952095309508957A926A928D
:100860005A924A92BA93AA939A938A9308957F8050
:100870006E805D804C80BB81AA8199818881F0E087
:10088000EC0FFD1FEF01089501E00895F80101C08C
:100890002193BA0141505040672BD1F7089520E0D1
:1008A00006D0E9F70895259102D0E9F708952D9330
:1008B00001501040202F212B08958CE890E0FC017E
:1008C00005911491FC013296A591B491FC013496E6
:1008D00025913491422F432B19F0F901E4DF01C037
:1008E000DEDF069610E08839910748F3089502C0CC
:1008F0002F5F3F4FF8014081F9015081451741F4C6
:10090000F80131968F01442399F700E010E0089533
:10091000042F10E0051B1040089543414C4C005239
:070920004553504F4E450006
:0400000300000000F9
:00000001FF
