:020000020000FC
:100000000C944C00189518951895189518951895F6
:100010001895189518951895189518951895189578
:100020001895189518951895189518951895189568
:100030001895189518951895189518951895189558
:100040001895189518951895189518951895189548
:100050001895189518951895189518951895189538
:100060001895189518951895189518951895189528
:100070001895189518951895189518951895189518
:1000800018951895189518951895189500E010E092
:10009000089500008895FECF0FE30DBF01E00EBF6D
:1000A000C0E4D3E00E945A000E9446000E9449002A
:0800B0000C94490001E00895E1
:0400000300000000F9
:00000001FF
